:100000000C9462000C948A000C948A000C948A0070
:100010000C948A000C948A000C948A000C948A0038
:100020000C948A000C948A000C948A000C94BB0BEC
:100030000C948A000C948A000C948A000C948A0018
:100040000C94FA090C948A000C946A0A0C94440AE1
:100050000C948A000C948A000C948A000C948A00F8
:100060000C949C0A0C948A000000000024002700D5
:100070002A0000000000250028002B0000000000DE
:1000800023002600290004040404040404040202DA
:100090000202020203030303030301020408102007
:1000A0004080010204081020010204081020000012
:1000B0000008000201000003040700000000000027
:1000C0000000770C11241FBECFEFD8E0DEBFCDBFFC
:1000D00011E0A0E0B1E0E4E0F3E202C005900D928F
:1000E000AE3FB107D9F723E0AEEFB1E001C01D92FA
:1000F000AC3BB207E1F710E0C2E6D0E004C02197C4
:10010000FE010E947A11C136D107C9F70E940A0D7B
:100110000C9480110C9400008F929F92AF92BF922A
:10012000FF920F931F93CF93DF93F0909D032BE0EB
:100130002F1508F44CC020919F0308E512E0021B24
:10014000110927FD1395000F111F000F111F20919A
:100150009E03C8E8D0E0C21BD10927FDD395CC0F80
:10016000DD1FCC0FDD1F4E010D2E000CAA08BB08B1
:100170009801012E000C440B550B281939094A0926
:100180005B09DC010E94351124EB30E040E050E0D7
:100190000E940B11820E931EA41EB51E8C169D0686
:1001A0002CF0E801801691060CF4E4012297CC0FA4
:1001B000DD1F2FB7F8948F2D90E0FC01EE0FFF1F8D
:1001C000E80FF91FE858FC4FD283C1832FBFDF919E
:1001D000CF911F910F91FF90BF90AF909F908F9004
:1001E00008958CBD9DBD0895833081F028F4813041
:1001F00099F08230A9F008958730A9F08830C9F0CD
:100200008430B1F4809180008F7D03C080918000A4
:100210008F7780938000089584B58F7784BD08958B
:1002200084B58F7DFBCF8091B0008F778093B00035
:1002300008958091B0008F7DF9CFCF93DF93282F61
:1002400030E0F901E255FF4F8491F901E656FF4F86
:10025000D491F901EA57FF4FC491CC23A1F0811149
:100260000E94F400EC2FF0E0EE0FFF1FE458FF4F68
:10027000A591B491EC91ED2381E090E009F480E048
:10028000DF91CF91089580E090E0FACF1F93CF9354
:10029000DF93282F30E0F901E255FF4F8491F901F7
:1002A000E656FF4FD491F901EA57FF4FC491CC2392
:1002B000A9F0162F81110E94F400EC2FF0E0EE0F50
:1002C000FF1FEE58FF4FA591B4918FB7F894EC91B2
:1002D000111108C0D095DE23DC938FBFDF91CF9141
:1002E0001F910895DE2BF8CFCF93DF9390E0FC01B0
:1002F000E656FF4F24918A579F4FFC018491882333
:10030000D1F090E0880F991FFC01E859FF4FA591AB
:10031000B491FC01EE58FF4FC591D49161110EC00C
:100320009FB7F8948C91E22FE0958E238C932881CF
:10033000E223E8839FBFDF91CF9108958FB7F894B0
:10034000EC91E22BEC938FBFF6CF3FB7F8948091FE
:10035000C7029091C802A091C902B091CA0226B505
:10036000A89B05C02F3F19F00196A11DB11D3FBFED
:10037000BA2FA92F982F8827BC01CD01620F711DBC
:10038000811D911D42E0660F771F881F991F4A95B6
:10039000D1F708958F929F92AF92BF92CF92DF9242
:1003A000EF92FF924B015C010E94A5016B017C0161
:1003B0000E94A5016C197D098E099F09683E734052
:1003C00081059105A8F321E0821A9108A108B108DE
:1003D00088EEC80E83E0D81EE11CF11C8114910444
:1003E000A104B10429F7FF90EF90DF90CF90BF9068
:1003F000AF909F908F90089508950895AF92BF9207
:10040000CF92DF92EF92FF920F931F93CF93DF93E0
:100410006C017B018B01040F151FEB015E01AE180F
:10042000BF08C017D10759F06991D601ED91FC9131
:100430000190F081E02DC6010995892B79F7C5015E
:10044000DF91CF911F910F91FF90EF90DF90CF90B0
:10045000BF90AF900895FC01538D448D252F30E05F
:10046000842F90E0821B930B541710F0CF960895C1
:1004700001970895FC01918D828D981761F0A28DEE
:10048000AE0FBF2FB11D5D968C91928D9F5F9F73B4
:10049000928F90E008958FEF9FEF0895FC01918D6A
:1004A000828D981731F0828DE80FF11D858D90E0D7
:1004B00008958FEF9FEF0895FC01918D228D892F74
:1004C00090E0805C9F4F821B91098F73992708955C
:1004D0008FEC92E00E945C0221E0892B09F420E07D
:1004E000822F089580E090E0892B29F00E94680215
:1004F00081110C9400000895FC01A48DA80FB92F60
:10050000B11DA35ABF4F2C91848D90E001968F733B
:100510009927848FA689B7892C93A089B1898C915A
:10052000837080648C93938D848D981306C00288A9
:10053000F389E02D80818F7D80830895EF92FF9273
:100540000F931F93CF93DF93EC0181E0888F9B8DF6
:100550008C8D98131AC0E889F989808185FF15C0B0
:100560009FB7F894EE89FF896083E889F9898081D3
:100570008370806480839FBF81E090E0DF91CF91A2
:100580001F910F91FF90EF900895F62E0B8D10E0C4
:100590000F5F1F4F0F731127E02E8C8D8E110CC033
:1005A0000FB607FCFACFE889F989808185FFF5CF7E
:1005B000CE010E947C02F1CFEB8DEC0FFD2FF11DDF
:1005C000E35AFF4FF0829FB7F8940B8FEA89FB89BB
:1005D00080818062CFCFCF93DF93EC01888D882319
:1005E000B9F0AA89BB89E889F9898C9185FD03C096
:1005F000808186FD0DC00FB607FCF7CF8C9185FF7B
:10060000F2CF808185FFEDCFCE010E947C02E9CF41
:10061000DF91CF910895BC016E5F7F4FDC01ED91BA
:10062000FC910190F081E02D40E0099591E081116D
:1006300090E0892F089508958EBD00000DB407FE47
:10064000FDCF8EB50895DF92EF92FF920F931F9327
:10065000CF93DF937C01062FD42E152F80E590E0F9
:100660000E94F10060E0F70186850E94460182E168
:100670000E941C03CD2DD12F0C0F1D2F111DC01753
:10068000D10721F089910E941C03F9CF61E0F701A5
:100690008685DF91CF911F910F91FF90EF90DF90B2
:1006A0000C9446011F93CF93DF93EC01162F80E546
:1006B00090E00E94F10060E08E850E944601812F4B
:1006C00080680E941C0380E00E941C03182F61E0D8
:1006D0008E850E944601812FDF91CF911F91089551
:1006E0000F931F93CF93DF93EC01062F142F80E518
:1006F00090E00E94F10060E08E850E944601802F0C
:100700000E941C03812F0E941C0361E08E85DF91F3
:10071000CF911F910F910C944601CF92DF92EF92EF
:10072000FF920F931F93CF93DF93EC016B01F42E95
:10073000890140E062E00E94700344E06AE0CE017B
:100740000E94700340E864E1CE010E947003A6019C
:100750006F2DCE010E94230343E062E0CE010E9490
:1007600070038FB7F894C090CB02D090CC02E09089
:10077000CD02F090CE028FBF89E5C80ED11CE11CDE
:10078000F11C6AE0CE010E94520382FF1BC040E0D0
:1007900062E0CE010E94700364E4CE010E94520325
:1007A000F801808362E4CE010E945203F801818344
:1007B00080E0DF91CF911F910F91FF90EF90DF903C
:1007C000CF9008952FB7F8948091CB029091CC02EE
:1007D000A091CD02B091CE022FBF8C159D05AE0524
:1007E000BF0578F283E0E5CF2F923F924F925F9260
:1007F0006F927F928F929F92AF92CF92DF92EF9201
:10080000FF920F931F93CF93DF9300D0CDB7DEB746
:100810004C012B01D42E390180E0E114F10411F0D8
:10082000F70180813C2C329490EF3922380E40E061
:1008300062E0C4010E9470034FE768E0C4010E94B7
:10084000700340E864E1C4010E947003A2016D2DB1
:10085000C4010E942303432D6AE1C4010E94700376
:100860004CE062E0C4010E9470036AE1C4010E948E
:100870005203482F40686AE1C4010E9470038FB799
:10088000F8942090CB023090CC024090CD02509052
:10089000CE028FBFF4E22F0E311C411C511C68E0C8
:1008A000C4010E945203982F907309F0C0C080FFCA
:1008B00015C083E00F900F90DF91CF911F910F91A2
:1008C000FF90EF90DF90CF90AF909F908F907F90B0
:1008D0006F905F904F903F902F9008952FB7F894AE
:1008E0008091CB029091CC02A091CD02B091CE022A
:1008F0002FBF82159305A405B50588F2DACF6114E0
:10090000710409F469C00115110509F465C064E1B9
:10091000C4010E945203382EF8018081831508F427
:1009200080C030823320E1F180E590E00E94F10048
:1009300060E0F40186850E9446013A9482E90E94B3
:100940001C03CC20B1F08FEF90E09C0102C0220F7D
:10095000331FCA94E2F7690182E90E941C039C2DAF
:100960009095F301208192238C21982B9083CC24A5
:10097000C39423014C0C511CC31440F482E90E941F
:100980001C03F20181932F01C394F6CF80E00E94F3
:100990001C03F201808361E0F40186850E94460118
:1009A00068E1C4010E9452038770E114F10411F060
:1009B000F701808323FC37C061147104B1F1011584
:1009C000110599F1AA2089F1F8014081413031F4F3
:1009D000843029F58FEF6ECF80E0ECCF4230F8F015
:1009E00081111DC042509E012F5F3F4FB301C401D2
:1009F0000E948D0381115ECFF8019081690E711CF8
:100A0000F301329720819981291309C0F1E06F1A0F
:100A10007108F30120819A81291709F44BCF87E0EF
:100A200049CF84E047CF82E045CF80E043CF6CE000
:100A3000C4010E945203282E837109F460CF81E023
:100A400039CF0F931F93CF93DF938C01D62FC42FF1
:100A50000E945203C0954C2F48236D2FC801DF918F
:100A6000CF911F910F910C9470038F929F92AF9230
:100A7000CF92EF92FF920F931F93CF93DF9300D00B
:100A800000D01F92CDB7DEB74C0182E08D8340E0ED
:100A900064E2C4010E94700340E066E2C4010E9467
:100AA000700346E268E4C4010E94700386E28B830F
:100AB0008D818230B0F140E86CE1C4010E942105D3
:100AC00087E08C83A12CC12CCE0104967C018E0181
:100AD0000B5F1F4F9E012F5F3F4F41E0BE016D5FD7
:100AE0007F4FC4010E94F403982F811117C08D819C
:100AF0008230B9F48C81811114C081E00F900F9085
:100B00000F900F900F90DF91CF911F910F91FF9059
:100B1000EF90CF90AF909F908F90089581E09230AA
:100B200069F380E0EBCF2F923F924F925F926F92EA
:100B30007F928F929F92AF92BF92CF92DF92EF926D
:100B4000FF920F931F93CF93DF93CDB7DEB72D970F
:100B50000FB6F894DEBF0FBECDBF16E0413508F0EA
:100B600045C1342E4B013C0140E86CE10E94210557
:100B700083E98983332029F081E0F4019081953065
:100B800008F480E022242394B12C9B2D990F990F17
:100B9000990FD32CD91AD7FCD12C32E0882319F025
:100BA00098E89B8333E021E09D2D977009F420E0C5
:100BB0009D2D959595959595290FC9F094E08111F6
:100BC00093E0291708F4922FEB2DF0E03196E80D11
:100BD000F91D232F4191A1E0B0E0AC0FBD1FA20F82
:100BE000B11D4C932F5F422F431B491798F3882365
:100BF00011F0F8E0DF0E8FE18D150CF082C090E768
:100C00009A838B819C8189279D8189279E81892751
:100C10008F839E01285F3F4F47E0BE016F5F7F4F8C
:100C2000C3010E948D03182F8111E0C01A86E3E0F2
:100C3000EB87DC86CE0107962C0199E09D87CA845C
:100C40004C2D4295407F4C0D6AE1C3010E94700318
:100C5000A12CCE010A967C018E01055F1F4F9201E7
:100C60004D85BE016F5F7F4FC3010E94F403182FB3
:100C7000823009F065C06CE1C3010E94520385FD1A
:100C8000B5C08F7109F480E2282F30E04D2DDD0CC6
:100C9000550B421753070CF09DC0D82EE82FE59551
:100CA000E595E595EF5F982F977081E009F480E076
:100CB000E80F81E090E08C0F9D1F8E0F911DFC01CD
:100CC000215031092770332781E090E002C0880F5E
:100CD000991F2A95E2F79C018081822B80838BCF1C
:100CE00085E98983332031F081E0F40190819830E7
:100CF00008F04BCF80E049CF87E9898326E0B22E08
:100D0000F9CF9D2D97709A878D2D85958595859521
:100D10008E5F282F2295207F290F2A8321E09111B1
:100D200001C020E0280F2D8744244394512C4C0E01
:100D30005D1E480E511CE9E0E81BEB87DC867FCF87
:100D4000811154C080E2D82E9C8590320CF457CF8C
:100D50008B81883809F040C083E093E0EB2DF0E010
:100D60003196E80DF91D980FA1E0B0E0AC0FBD1F62
:100D7000A80FB11D2C9121938F5F8913F5CFBB84F0
:100D8000E3E0BE124DC08A8581114AC09E012D5FED
:100D90003F4F41E0B201C3010E948D03182F811122
:100DA00025C09B81F201818198133CC09C81828186
:100DB000981338C0808182FF12C02394F2E02F166E
:100DC00009F48ECF83E0281609F496CF91E0291616
:100DD00009F4CECE15E00AC082E094E0BFCFF40162
:100DE0008387822D880F820D8F5F8083812F2D96C0
:100DF0000FB6F894DEBF0FBECDBFDF91CF911F912C
:100E00000F91FF90EF90DF90CF90BF90AF909F90A9
:100E10008F907F906F905F904F903F902F900895AC
:100E200011E0E4CF17E0E2CF089520914002260FB1
:100E30003327331F21323105ECF420918902FC0164
:100E400090E080E0243069F082E00895A0914002B3
:100E50002191AC01405E5D4FA40FB52FB11D2C93C5
:100E60000196861798F380914002680F60934002C4
:100E700080E0089581E008951092890281E08093D6
:100E800088021092630261E082E10E94460161E003
:100E900083E10E944601E9EBF0E080818E7F808350
:100EA00080818D7F808388E48093B80085E480937F
:100EB000BC000895CF93DF9391E090931F028823A5
:100EC000B9F0C091B800D091BA008091BC008A7B83
:100ED0008093BC0060E082E10E94460160E083E113
:100EE0000E9446010E943C07D093BA00C093B8000C
:100EF000DF91CF9108950895E091B9028091B802F1
:100F0000E81730F4F0E0E150FE4F808190E0089562
:100F10008FEF9FEF08959091B9028091B8022FEF63
:100F20003FEF981748F4E92FF0E0E150FE4F2081A1
:100F300030E09F5F9093B902C90108958091B80293
:100F40009091B902891B990B0895CF92DF92EF928D
:100F5000FF920F931F93CF93DF937C01CB018A0104
:100F600020918F02222389F0EB016B01C40ED51E64
:100F7000CC15DD0569F06991D701ED91FC910190E7
:100F8000F081E02DC7010995F3CF642F0E9415076A
:100F9000C801DF91CF911F910F91FF90EF90DF90EB
:100FA000CF900895CF93DF931F92CDB7DEB76983BB
:100FB00020918F022223F9F02091B602203258F0BE
:100FC00021E030E0FC013383228390E080E00F9049
:100FD000DF91CF9108958091B702E82FF0E0E057BC
:100FE000FD4F998190838F5F8093B7028093B60203
:100FF00081E090E0ECCF61E0CE0101960E94150700
:10100000F7CFCF92DF92EF92FF920F931F93CF9380
:10101000DF93FC01C48121E020938F02C093B002D2
:101020001092B7021092B6028385682B8CE693E08B
:101030000E94D207D091B602D13208F092C00E942D
:10104000A5016B017C0180918902811165C082E05C
:101050008093890281E0809388028FEF80938702DA
:1010600010928602D0938502A0E9B2E0E5E6F2E0B4
:1010700080E0D81385C01092640280916402CC0F86
:10108000C82BC093640280916302813009F07CC058
:10109000109263020E94A5016B017C0180916402A1
:1010A0008093BB0080918B0290918C02A0918D0265
:1010B000B0918E02892B8A2B8B2B99F00E94A5016F
:1010C00000918B0210918C0220918D0230918E0242
:1010D0006C197D098E099F0906171707280739071C
:1010E000E0F18091BC0083FDD9CF85EC8093BC00FA
:1010F0000E94A5016B017C0180918902823009F474
:1011000045C0809187028F3F61F1809187028032D4
:1011100041F18091870225C080918B0290918C02D1
:10112000A0918D02B0918E02892B8A2B8B2B09F412
:101130008ACF0E94A50100918B0210918C02209110
:101140008D0230918E026C197D098E099F09061758
:1011500017072807390708F076CF80918A020E9486
:101160005A071092B7021092B60210928F02DF91C6
:10117000CF911F910F91FF90EF90DF90CF90089546
:101180009D9191938F5F75CF85EEB0CF80918B024B
:1011900090918C02A0918D02B0918E02892B8A2BA6
:1011A0008B2B09F4A9CF0E94A50100918B0210910D
:1011B0008C0220918D0230918E026C197D098E096E
:1011C0009F09061717072807390708F095CFC5CFDD
:1011D00090E080E0089585E00E941D0121E030E06C
:1011E000892B11F030E020E03093C5022093C40237
:1011F00086E00E941D0121E030E0892B11F030E0F3
:1012000020E03093C3022093C20287E00E941D01B8
:1012100021E030E0892B11F030E020E03093C10272
:101220002093C00288E00E941D0121E030E0892B5C
:1012300011F030E020E03093BF022093BE02089509
:101240000F931F93CF938C01C62F0E9401086C2F20
:101250006460C8010E9401086C2F6B7FC8010E9466
:10126000010883EC90E00197F1F7CF911F910F9166
:1012700008950F931F93CF93DF938C01D62FC42F24
:10128000607F642B0E94200980E1D89FB001112467
:101290006C2BC801DF91CF911F910F910C94200905
:1012A000CF93DF93CDB7DEB728970FB6F894DEBFA4
:1012B0000FBECDBF98E0E2E0F1E0DE0111960190B3
:1012C0000D929A95E1F79091A903961710F46FEF9C
:1012D000690F262F30E0220F331F41E050E04C0F02
:1012E0005D1F240F351FF9016081680F606840E0C1
:1012F00080EA93E028960FB6F894DEBF0FBECDBF0C
:10130000DF91CF910C94390941E00E94390981E0C5
:1013100090E00895FB0101900020E9F73197AF01BB
:10132000461B570BDC01ED91FC910280F381E02D0F
:101330000994BC0180EA93E00C948A098AE590E064
:101340000E948C0060E080E00E94500984E491E0FB
:101350000E94990960ED77E080E090E00C94CA016A
:1013600084EB90E00E948C0060E080E00E945009D5
:1013700086E591E00E94990960ED77E080E090E0D9
:101380000C94CA0185ED8093BC0080918B029091F2
:101390008C02A0918D02B0918E020796A11DB11D05
:1013A00023E0B695A795979587952A95D1F7209133
:1013B000BC0024FD03C010928902089540918B0265
:1013C00050918C0260918D0270918E02452B462BBC
:1013D000472B69F30097A105B10541F02AE22A9550
:1013E000F1F700C00197A109B109E1CF80918A020C
:1013F0000C945A071F920F920FB60F9211242F933D
:101400003F938F939F93AF93BF938091CB02909123
:10141000CC02A091CD02B091CE023091C60223E061
:10142000230F2D3758F50196A11DB11D2093C6023B
:101430008093CB029093CC02A093CD02B093CE02C6
:101440008091C7029091C802A091C902B091CA02CE
:101450000196A11DB11D8093C7029093C802A0936D
:10146000C902B093CA02BF91AF919F918F913F91F2
:101470002F910F900FBE0F901F90189526E8230F05
:101480000296A11DB11DD2CF1F920F920FB60F92DF
:1014900011242F933F934F935F936F937F938F9379
:1014A0009F93AF93BF93EF93FF938FEC92E00E94D3
:1014B0007C02FF91EF91BF91AF919F918F917F91AE
:1014C0006F915F914F913F912F910F900FBE0F90B1
:1014D0001F9018951F920F920FB60F9211242F9301
:1014E0008F939F93EF93FF93E091DF02F091E002DF
:1014F0008081E091E502F091E60282FD1BC09081BF
:101500008091E8028F5F8F732091E902821741F08A
:10151000E091E802F0E0E153FD4F958F8093E802FF
:10152000FF91EF919F918F912F910F900FBE0F9090
:101530001F9018958081F4CF1F920F920FB60F92D3
:1015400011242F933F934F935F936F937F938F93C8
:101550009F93AF93BF93EF93FF938091B900887FE0
:10156000803609F44AC0F0F5883209F4A7C018F5AE
:10157000803109F49BC0B8F4882309F4F9C088309D
:1015800009F494C0FF91EF91BF91AF919F918F911A
:101590007F916F915F914F913F912F910F900FBE6F
:1015A0000F901F901895883109F488C0803251F748
:1015B0008093870214C0803409F49DC040F48033C6
:1015C000B9F38833F9F68093870285ECB0C0803593
:1015D00009F485C0883509F496C0883499F60E94CC
:1015E000C209D0CF883909F48CC038F5883729F082
:1015F00050F4883611F0803729F683E08093890211
:101600001092620257C0883809F47BC0803919F003
:10161000803809F0B7CF80916202803208F071C043
:10162000E091620281E08E0F809362028091BB00A4
:10163000F0E0EE5BFD4F80833DC0803B39F0E0F48D
:10164000803A09F479C0883A09F09CCF84E080930D
:1016500089021092410210924002E091B402F0918E
:10166000B50209958091400281110FC081E08093FD
:1016700040021092200209C0803C09F4A6CF883CA9
:1016800009F4A3CF883B09F07DCFE091410281E0CE
:101690008E0F80934102F0E0E05EFD4F80818093E9
:1016A000BB00909141028091400229C08091640268
:1016B0008093BB0085EC8093BC0064CF9091860240
:1016C00080918502981758F5E091860281E08E0F8F
:1016D00080938602F0E0EB59FD4F8081E9CFE091E5
:1016E000860281E08E0F809386028091BB00F0E03D
:1016F000EB59FD4F80839091860280918502981767
:10170000C8F285E8D8CFE091860281E08E0F809301
:1017100086028091BB00F0E0EB59FD4F8083809101
:10172000880281115CCF81E08093630284EA809318
:10173000BC001092890226CF85EC8093BC001092E9
:10174000890280916202803230F4E0916202F0E01E
:10175000EE5BFD4F10826091620270E0E091B20298
:10176000F091B30282E492E00995109262020ACFEE
:101770001092870234CF1F920F920FB60F9211244E
:101780002F933F934F935F936F937F938F939F9389
:10179000AF93BF93CF93DF93EF93FF938091FE01BD
:1017A000C0919C03D0E087FF24C010928500109266
:1017B00084008091FE018F5F8093FE018091FE0185
:1017C000082E000C990B8C179D0724F48091FE01C4
:1017D0008C30C4F18091840090918500049680340F
:1017E0009C4908F47AC08091840090918500049609
:1017F00076C08091FE01082E000C990B8C179D0776
:10180000C4F6E091FE018E2FEE0F990BFC01EE0F56
:10181000FF1FE80FF91FE858FC4F808186FFC9CFF2
:10182000E091FE018E2FEE0F990BFC01EE0FFF1FD2
:10183000E80FF91FE858FC4F808160E08F730E9429
:101840004601B7CF2091840030918500E091FE01E0
:101850008E2FEE0F990BFC01EE0FFF1FE80FF91F03
:10186000E858FC4F81819281820F931F90938900E9
:1018700080938800E091FE018E2FEE0F990BFC0102
:10188000EE0FFF1FE80FF91FE858FC4F808186FF1D
:1018900011C0E091FE018E2FEE0F990BFC01EE0FAF
:1018A000FF1FE80FF91FE858FC4F808161E08F733C
:1018B0000E944601FF91EF91DF91CF91BF91AF91CF
:1018C0009F918F917F916F915F914F913F912F9158
:1018D0000F900FBE0F901F90189580E49CE9909395
:1018E0008900809388008FEF8093FE01E3CF1092F0
:1018F000D2021092D10288EE93E0A0E0B0E0809393
:10190000D3029093D402A093D502B093D6022EE0D6
:1019100031E03093D0022093CF0225EC30E03093B9
:10192000DC022093DB0224EC30E03093DE022093D3
:10193000DD0220EC30E03093E0022093DF0221EC66
:1019400030E03093E2022093E10222EC30E0309369
:10195000E4022093E30226EC30E03093E602209389
:10196000E5021092E8021092E9021092EA02109247
:10197000EB0210926F0310926E03809370039093AA
:101980007103A0937203B093730380E291E090938C
:101990006D0380936C038EE391E09093AD0380938D
:1019A000AC038AE08093BA0389E08093BB03109272
:1019B000A3031092A20382E391E09093A10380938A
:1019C000A00387E28093A40384E18093A80384E0CA
:1019D0008093A9031092AA0388E08093AB038091BF
:1019E0009C038C3098F491E0980F90939C03809323
:1019F0009D0390E0FC01EE0FFF1FE80FF91FE85870
:101A0000FC4F88EB9BE09283818308958FEF809356
:101A10009D030895CF93DF93CDB7DEB7A1970FB69F
:101A2000F894DEBF0FBECDBF789484B5826084BDCC
:101A300084B5816084BD85B5826085BD85B58160D2
:101A400085BD80916E00816080936E001092810050
:101A5000809181008260809381008091810081600B
:101A600080938100809180008160809380008091CC
:101A7000B10084608093B1008091B0008160809358
:101A8000B00080917A00846080937A0080917A001F
:101A9000826080937A0080917A00816080937A00DE
:101AA00080917A00806880937A001092C100E09162
:101AB000DF02F091E00282E08083E091DB02F091AE
:101AC000DC021082E091DD02F091DE028FEC808377
:101AD0001092E702E091E302F091E40286E0808355
:101AE000E091E102F091E202808180618083E091E7
:101AF000E102F091E202808188608083E091E1025E
:101B0000F091E202808180688083E091E102F091AF
:101B1000E20280818F7D80831FB7F8948091B102AB
:101B2000811127C0E0E9F0E08491E4EAF0E09491CB
:101B3000E82FF0E0EE0FFF1FE859FF4FA591B49199
:101B4000EC91E92321F461E08AE00E94460161E022
:101B50008AE00E9474018CB580618CBD8CB5806474
:101B60008CBD61E08DE00E94740161E08BE00E9419
:101B700074018091B1028F5F8093B1021FBF61E059
:101B80008091BA030E94740161E08091BA030E94BF
:101B900046018091BB038F3F09F4F5C260E00E94CB
:101BA00074018091BB030E941D01892B09F0EBC2D7
:101BB00061E08091BB030E94740160E08091BB03EF
:101BC0000E94460183E090E00197F1F761E0809187
:101BD000BB030E94460162E370E080E090E00E9457
:101BE000CA0140E064E28CEA93E00E94700340E0A6
:101BF00066E28CEA93E00E94700346E268E48CEAB5
:101C000093E00E94700340E864E58CEA93E00E9450
:101C1000700349EA66E58CEA93E00E94700343E0B2
:101C200068E58CEA93E00E94700348EE6AE58CEA6E
:101C300093E00E94700340E46AE28CEA93E00E9421
:101C400070034DE362E28CEA93E00E94700368E265
:101C50008CEA93E00E945203982F9370933039F0EE
:101C6000482F436068E28CEA93E00E94700360E0D2
:101C700085E00E94740160E086E00E94740160E0EB
:101C800087E00E94740160E088E00E94740160E0D7
:101C900084E00E94740160E082E00E9474018091FF
:101CA0009D038C3008F051C061E083E00E94740114
:101CB00080919D03282F30E0F901EE0FFF1FE20F06
:101CC000F31FE858FC4F9081907C936090831092B2
:101CD0009E0310929F032CE0622F0E946E11829F40
:101CE000B001112430E020E0AB01420F531FFA0194
:101CF000EE0FFF1FE40FF51FE858FC4F908196FD93
:101D000016C02F5F3F4F2C30310571F781110FC086
:101D10001092800082E080938100109285001092E2
:101D20008400B19A80916F00826080936F00E0918F
:101D30009D038E2F90E0FC01EE0FFF1FE80FF91FAF
:101D4000E858FC4F8081806480838AE590E00E949F
:101D50008C001092B9021092B8021092B702109241
:101D6000B6020E943C078CEF91E09093B5028093FD
:101D7000B4028DEF91E09093B3028093B20210927F
:101D8000A5038091A903823018F098E09093A503F1
:101D90009091AA03992339F0813029F48091A50309
:101DA00084608093A50362E370E080E090E00E948D
:101DB000CA016091AB0380EA93E00E94010868EEDB
:101DC00073E080E090E00E94CA0160E380EA93E063
:101DD0000E9420090BE416E4C8010197F1F760E3C3
:101DE00080EA93E00E942009C8010197F1F760E3BF
:101DF00080EA93E00E94200983E592E00197F1F7E1
:101E000060E280EA93E00E9420096091A50360628D
:101E100040E080EA93E00E94390984E08093A603C1
:101E200040E06CE080EA93E00E94390940E061E024
:101E300080EA93E00E9439090BE31FE1C801019792
:101E4000F1F782E08093A70340E066E080EA93E048
:101E50000E94390940E062E080EA93E00E9439097B
:101E6000C8010197F1F788E08093AB0360E080EA56
:101E700093E00E94010861E080E00E94500980EB3D
:101E800091E00E94990962E080E00E9450098FEB86
:101E900091E00E94990960ED77E080E090E00E9477
:101EA000CA0140E061E080EA93E00E943909C8017C
:101EB0000197F1F70E94EB088091C4029091C5024E
:101EC0002091C2023091C302820F931F2091C00261
:101ED0003091C102820F931F2091BE023091BF0248
:101EE000820F931F2091000130910101281B390BB3
:101EF00030930101209300019AE0492E512C612C6E
:101F0000712C88248394912C0E94EB0860E080E07F
:101F10000E9450098EEC91E00E949909C090000146
:101F2000D09001010D2C000CEE08FF08F7FE42C115
:101F300041E06DE280EA93E00E94390922273327CD
:101F4000A9012C193D094E095F0919A2CE018196FC
:101F50007C01CA01B901A30192010E943D11605D9B
:101F6000F70162937F01211531054105510589F77C
:101F7000E114F10429F0B70180EA93E00E948A0994
:101F800087ED91E00E94990961E080E00E9450098C
:101F90008091C4029091C502892B09F421C188E681
:101FA00091E00E94990961E08AE00E9450098091C5
:101FB000C2029091C302892B09F415C18AE791E00E
:101FC0000E94990962E080E00E9450098091C0025D
:101FD0009091C102892B09F409C18CE891E00E941B
:101FE000990962E08AE00E9450098091BE029091B6
:101FF000BF02892B09F4FDC08EE991E00E94990986
:102000008CEA93E00E943505882309F456C08CEAD7
:1020100093E00E940B03882309F44FC06CED71E03C
:102020008FEC92E00E948A096BEE71E08FEC92E0F7
:102030000E948A09809100019091010118161906E9
:102040000CF0DAC09092BD028092BC028091BA027C
:102050009091BB02892B59F40E94B0098091000134
:10206000909101010197909301018093000180E517
:1020700089831A829E012D5F3F4F42E0BE016F5F50
:102080007F4F8CEA93E00E948D03811110C0A12C38
:10209000C12CF12CE12C10E000E030E020E044E025
:1020A000BE016F5F7F4F8CEA93E00E94F40348E02B
:1020B00060E18CEA93E00E94210584E00E941D010A
:1020C000892B91F48091BA029091BB02892B61F423
:1020D0008091BC029091BD029092BB028092BA02A4
:1020E000892B11F40E94B00982E00E941D01892B06
:1020F000D9F48091BA029091BB02892BA9F4809106
:10210000BC029091BD029092BB028092BA02892BD0
:1021100059F40E949E09809100019091010101965D
:1021200090930101809300018091BC029091BD02C7
:102130000197B1F48091BA029091BB02019781F4AA
:1021400068EE73E080E090E00E94CA010E949E0960
:102150001092BD021092BC021092BB021092BA0201
:1021600061E070E080E090E00E94CA0180E090E0D1
:10217000892B09F4C9CE0E946802882309F4C1CED4
:102180000E940000BECE4FE062E08CEA93E00E9425
:10219000700313E062E370E080E090E00E94CA0107
:1021A00062E08CEA93E00E94520384FF1ACD115042
:1021B00089F717CDA701960119A2CE0181967C015E
:1021C000CA01B901A30192010E943D11605DF701AE
:1021D00062937F01211531054105510589F7C8CE6C
:1021E00081E791E0DECE83E891E0EACE85E991E0F7
:1021F000F6CE87EA91E002CF60E080E00E945009CD
:102200008EEE91E00E9499096CED75E080E090E01F
:102210000E94CA012CCF052E97FB1EF400940E9449
:10222000221157FD07D00E943D1107FC03D04EF448
:102230000C94221150954095309521953F4F4F4F6A
:102240005F4F089590958095709561957F4F8F4F62
:102250009F4F08950E945F11A59F900DB49F900D10
:10226000A49F800D911D11240895B7FF0C942A118D
:102270000E942A11821B930B0895A1E21A2EAA1B19
:10228000BB1BFD010DC0AA1FBB1FEE1FFF1FA21726
:10229000B307E407F50720F0A21BB30BE40BF50B23
:1022A000661F771F881F991F1A9469F760957095AC
:1022B000809590959B01AC01BD01CF010895A29F2F
:1022C000B001B39FC001A39F700D811D1124911D0A
:1022D000B29F700D811D1124911D0895991B79E005
:1022E00004C0991F961708F0961B881F7A95C9F7A6
:1022F00080950895EE0FFF1F0590F491E02D09944D
:04230000F894FFCF7F
:1023040004000000400014005400000000009E027D
:10231400FE012B02EB025C023A024E0200000000B6
:10232400D207A507E8087B079E078B077C070000F8
:1023340000008409FE01E80814070000000093056A
:1023440035050B03204761746520436C6F73696E18
:10235400672E2E2E20002047617465204F70656E15
:10236400696E672E2E2E200053313A46696C6C201C
:102374000053313A456D7074790053323A46696CB2
:102384006C200053323A456D7074790053333A46E9
:10239400696C6C200053333A456D70747900533482
:1023A4003A46696C6C200053343A456D7074790078
:1023B4002020436172205061726B696E6720002097
:1023C4002020202053797374656D20202000205331
:1023D4006C6F74733A2000202020200043617264E3
:1023E40020446574656374656421000D0A002050FF
:0E23F40061726B696E672046756C6C2000008C
:00000001FF
